:100000000C9446000C9450000C9450000C9450003A
:100010000C9450000C9450000C9450000C94500020
:100020000C9450000C9450000C9450000C94500010
:100030000C9450000C9450000C9450000C94500000
:100040000C9450000C9450000C9450000C945000F0
:100050000C9450000C9450000C9450000C945000E0
:100060000C9450000C9450000C9450000C945000D0
:100070000C9450000C9450000C9450000C945000C0
:100080000C9450000C9450000C94500011241FBE8E
:10009000CFEFD0E1DEBFCDBF0E9452000C948802AA
:1000A0000C940000CF93DF93CDB7DEB7A0970FB6C7
:1000B000F894DEBF0FBECDBF9E8F8D8F78A36F8F5C
:1000C0008AE390E0FC0120818AE390E02160FC015A
:1000D00020838BE390E0FC0120818BE390E02E7F76
:1000E000FC0120838BE390E0FC0120818BE390E016
:1000F0002160FC01208380E090E0AAEFB3E48F87C9
:10010000988BA98BBA8B20E030E04AE753E46F85E7
:10011000788989899A890E94F301DC01CB018B8B54
:100120009C8BAD8BBE8B20E030E040E85FE36B89B9
:100130007C898D899E890E946D0181152CF481E056
:1001400090E0988F8F8B40C020E03FEF4FE757E45F
:100150006B897C898D899E890E94EE01813054F1E2
:1001600020E030E040E251E46F85788989899A89FE
:100170000E94F301DC01CB01BC01CD010E947201A0
:10018000DC01CB01988F8F8B10C089E190E09A8FB2
:10019000898F898D9A8D0197F1F79A8F898F000049
:1001A0008F89988D0197988F8F8B8F89988D009765
:1001B00061F715C06B897C898D899E890E947201C7
:1001C000DC01CB01988F8F8B8F89988D9C8F8B8FC3
:1001D0008B8D9C8D0197F1F79C8F8B8F00008BE3AB
:1001E00090E0FC0120818BE390E02E7FFC012083D6
:1001F00080E090E0AAEFB3E489839A83AB83BC8369
:1002000020E030E04AE753E469817A818B819C8168
:100210000E94F301DC01CB018D839E83AF83B887FD
:1002200020E030E040E85FE36D817E818F8198853A
:100230000E946D0181152CF481E090E09A878987F6
:1002400040C020E03FEF4FE757E46D817E818F8112
:1002500098850E94EE01813054F120E030E040E2C8
:1002600051E469817A818B819C810E94F301DC01D8
:10027000CB01BC01CD010E947201DC01CB019A8748
:10028000898710C089E190E09C878B878B859C854E
:100290000197F1F79C878B87000089859A850197E4
:1002A0009A87898789859A85009761F715C06D813E
:1002B0007E818F8198850E947201DC01CB019A8733
:1002C000898789859A859E878D878D859E850197EB
:1002D000F1F79E878D87000005CF0E94A10108F4E9
:1002E00081E008950E94CD0188F09F5798F0B92FC2
:1002F0009927B751B0F0E1F0660F771F881F991F5B
:100300001AF0BA95C9F714C0B13091F00E94E70114
:10031000B1E008950C94E701672F782F8827B85F24
:1003200039F0B93FCCF3869577956795B395D9F7B2
:100330003EF490958095709561957F4F8F4F9F4FBC
:100340000895990F0008550FAA0BE0E8FEEF161666
:100350001706E807F907C0F012161306E407F507B9
:1003600098F0621B730B840B950B39F40A2661F02D
:10037000232B242B252B21F408950A2609F4A140D0
:10038000A6958FEF811D811D089557FD9058440F4C
:10039000551F59F05F3F71F04795880F97FB991FE4
:1003A00061F09F3F79F087950895121613061406A1
:1003B000551FF2CF4695F1DF08C01616170618062E
:1003C000991FF1CF86957105610508940895E89409
:1003D000BB2766277727CB0197F908950E94A101D3
:1003E00008F48FEF08950E9406020C9477020E9491
:1003F000690238F00E94700220F0952311F00C94ED
:1004000060020C94660211240C94E8010E94C5015C
:1004100070F3959FC1F3950F50E0551F629FF00157
:10042000729FBB27F00DB11D639FAA27F00DB11D70
:10043000AA1F649F6627B00DA11D661F829F2227F9
:10044000B00DA11D621F739FB00DA11D621F839F80
:10045000A00D611D221F749F3327A00D611D231F56
:10046000849F600D211D822F762F6A2F11249F57A4
:1004700050409AF0F1F088234AF0EE0FFF1FBB1FA7
:10048000661F771F881F91505040A9F79E3F510566
:1004900080F00C9460020C94E8015F3FE4F3983E16
:1004A000D4F3869577956795B795F795E7959F5F10
:1004B000C1F7FE2B880F911D9695879597F90895A2
:1004C00097F99F6780E870E060E008959FEF80EC07
:1004D000089500240A9416161706180609060895AA
:1004E00000240A9412161306140605060895092E10
:1004F0000394000C11F4882352F0BB0F40F4BF2B7F
:1005000011F460FF04C06F5F7F4F8F4F9F4F0895BE
:04051000F894FFCF8D
:00000001FF
