:100000000C9446000C9450000C9450000C9450003A
:100010000C9450000C9450000C9450000C94500020
:100020000C9450000C9450000C9450000C94500010
:100030000C9450000C9450000C9450000C94500000
:100040000C9450000C9450000C9450000C945000F0
:100050000C9450000C9450000C9450000C945000E0
:100060000C9450000C9450000C9450000C945000D0
:100070000C9450000C9450000C9450000C945000C0
:100080000C9450000C9450000C94500011241FBE8E
:10009000CFEFD0E1DEBFCDBF0E9452000C947900BB
:1000A0000C9400008FEF84BB41E050E015BA2FE3C1
:1000B0003DE063E0215030406040E1F700C00000C7
:1000C00080E090E025B3BA01082E01C0660F0A94C3
:1000D000EAF7262B25BB2FE936E861E021503040B6
:1000E0006040E1F700C0000001968830910551F7AB
:0600F000DDCFF894FFCF04
:00000001FF
