:100000000C9446000C9465000C9465000C946500FB
:100010000C9465000C9465000C9465000C946500CC
:100020000C9465000C9465000C9465000C946500BC
:100030000C9465000C9465000C9465000C946500AC
:100040000C94FE000C9465000C9465000C94650003
:100050000C9465000C9465000C9465000C9465008C
:100060000C9465000C9465000C9465000C9465007C
:100070000C9465000C9465000C9465000C9465006C
:100080000C9465000C9465000C94650011241FBE4F
:10009000CFEFD0E1DEBFCDBF11E0A0E0B1E0EEEAEE
:1000A000F3E000E00BBF02C007900D92A431B1074E
:1000B000D9F721E0A4E1B1E001C01D92AD31B20752
:1000C000E1F70E948A010C94D5010C940000CF93B3
:1000D000DF9300D0CDB7DEB79A83898389819A8177
:1000E0009695879596958795969587959C01A5EC0D
:1000F000B0E20E94C601929582958F7089279F7009
:100100008927909315018093140149815A81CA016E
:100110009695879596958795969587959C01A5ECDC
:10012000B0E20E94C601929582958F7089279F70D8
:10013000892768EE73E0869F9001879F300D969F18
:10014000300D1124CA01821B930B969587959695C5
:1001500087959C01ABE7B4E10E94C601969587950F
:10016000909317018093160149815A81CA0196958F
:100170008795969587959C01ABE7B4E10E94C601EF
:100180009695879564E6689F9001699F300D1124CC
:10019000CA01821B930B9C01ADECBCEC0E94C60112
:1001A000969587959695879596958795909319013D
:1001B0008093180149815A819A01ADECBCEC0E94F0
:1001C000C6019C0136952795369527953695279536
:1001D000C901880F991F880F991F820F931F880FDD
:1001E000991F9A01281B390B30931B0120931A0188
:1001F00000000F900F90DF91CF9108951F920F9202
:100200000FB60F9211240BB60F922F933F938F933B
:100210009F93EF93FF93CF93DF93CDB7DEB780919A
:100220001C018130A1F488E390E021E0FC012083EF
:100230008091140190911501880F991F80509F4F54
:10024000FC012081318182E390E0FC0120838091D8
:100250001C018230A1F488E390E022E0FC012083BD
:100260008091160190911701880F991F80509F4F20
:10027000FC012081318182E390E0FC0120838091A8
:100280001C018330A1F488E390E024E0FC0120838A
:100290008091180190911901880F991F80509F4FEC
:1002A000FC012081318182E390E0FC012083809178
:1002B0001C018430A1F488E390E028E0FC01208355
:1002C00080911A0190911B01880F991F80509F4FB8
:1002D000FC012081318182E390E0FC012083809148
:1002E0001C018F5F80931C0180911C01853010F0F0
:1002F00010921C010000DF91CF91FF91EF919F912F
:100300008F913F912F910F900BBE0F900FBE0F90CA
:100310001F901895CF93DF93CDB7DEB781E390E0C0
:100320002FEFFC01208387E390E02FE0FC01208386
:1003300088E390E0FC01108282E390E02FE3FC016F
:10034000208383E590E0FC01208183E590E022603A
:10035000FC01208383E590E0FC01208183E590E0AF
:100360002A7FFC01208387E590E0FC01208187E55E
:1003700090E02160FC01208382E590E0FC01108286
:10038000789482EB97E00E946700FBCFA29FB001B8
:10039000B39FC001A39F700D811D1124911DB29FB9
:0E03A000700D811D1124911D0895F894FFCF5A
:1003AE003F0006005B004F0066006D007D000700F9
:0403BE007F006F004D
:00000001FF
