:1000000012C019C018C017C016C015C014C013C044
:1000100012C011C010C00FC00EC00DC00CC00BC06C
:100020000AC009C008C011241FBECFE5D4E0DEBF5E
:10003000CDBF02D0B7C1E4CFCF93DF93CDB7DEB74A
:10004000A6970FB6F894DEBF0FBECDBF988B8F87F3
:100050007A8B698B82E390E02FEFDC012C9385E3B0
:1000600090E02FE7FC01208380E090E0AAEFB3E46A
:1000700089839A83AB83BC8320E030E04AE753E472
:1000800069817A818B819C8102D16F8B788F898F76
:100090009A8F8F89988DA98DBA8D8D839E83AF831A
:1000A000B88720E030E040E85FE36D817E818F819A
:1000B00098856CD088232CF481E090E09A8789871A
:1000C00051C020E03FEF4FE757E46D817E818F8183
:1000D0009885D9D08823C9F1C4F120E030E040E20E
:1000E00051E469817A818B819C81D1D06B8F7C8F27
:1000F0008D8F9E8F8B8D9C8DAD8DBE8D8B8B9C8BB4
:10010000AD8BBE8B6B897C898D899E8943D06F8F27
:1001100078A389A39AA3AF8DB8A1BA87A98710C085
:1001200089E190E09C878B878B859C850197F1F70F
:100130009C878B87000089859A8501979A87898794
:1001400089859A85009761F718C06D817E818F81BE
:10015000988520D06BA37CA38DA39EA3EBA1FCA1CB
:10016000FA87E98789859A859E878D878D859E8503
:100170000197F1F79E878D87000082E390E0DC0114
:100180001C9285E390E0FC01108264CF2FD008F42C
:1001900081E0089557D088F09F5790F0B92F9927A4
:1001A000B751A0F0D1F0660F771F881F991F1AF082
:1001B000BA95C9F712C0B13081F05ED0B1E00895B0
:1001C0005BC0672F782F8827B85F39F0B93FCCF331
:1001D000869577956795B395D9F73EF49095809578
:1001E000709561957F4F8F4F9F4F0895990F00082D
:1001F000550FAA0BE0E8FEEF16161706E807F907F9
:10020000C0F012161306E407F50798F0621B730B93
:10021000840B950B39F40A2661F0232B242B252B14
:1002200021F408950A2609F4A140A6958FEF811DB7
:10023000811D089557FD9058440F551F59F05F3F99
:1002400071F04795880F97FB991F61F09F3F79F0F8
:1002500087950895121613061406551FF2CF46957A
:10026000F1DF08C0161617061806991FF1CF8695FC
:100270007105610508940895E894BB2766277727E0
:10028000CB0197F90895B2DF08F48FEF08950BD0F2
:1002900078C069D028F06ED018F0952309F05AC0C4
:1002A0005FC01124EACFC6DFA0F3959FD1F3950F6D
:1002B00050E0551F629FF001729FBB27F00DB11DEA
:1002C000639FAA27F00DB11DAA1F649F6627B00D7A
:1002D000A11D661F829F2227B00DA11D621F739F63
:1002E000B00DA11D621F839FA00D611D221F749F71
:1002F0003327A00D611D231F849F600D211D822FB8
:10030000762F6A2F11249F5750408AF0E1F08823FE
:100310004AF0EE0FFF1FBB1F661F771F881F91500B
:100320005040A9F79E3F510570F014C0A6CF5F3F23
:10033000ECF3983EDCF3869577956795B795F7953E
:10034000E7959F5FC1F7FE2B880F911D96958795C6
:1003500097F9089597F99F6780E870E060E0089545
:100360009FEF80EC089500240A94161617061806CD
:100370000906089500240A941216130614060506A9
:100380000895092E0394000C11F4882352F0BB0F3A
:1003900040F4BF2B11F460FF04C06F5F7F4F8F4F9D
:0803A0009F4F0895F894FFCF70
:00000001FF
