:100000000C9446000C9450000C9450000C9450003A
:100010000C9450000C9450000C9450000C94500020
:100020000C9450000C9450000C9450000C94500010
:100030000C9452000C9450000C9450000C945000FE
:100040000C9450000C9450000C9450000C945000F0
:100050000C9450000C9450000C9450000C945000E0
:100060000C9450000C9450000C9450000C945000D0
:100070000C9450000C9450000C9450000C945000C0
:100080000C9450000C9450000C94500011241FBE8E
:10009000CFEFD0E1DEBFCDBF0E9479010C94D20337
:1000A0000C9400001F920F920FB60F9211240BB602
:1000B0000F922F933F934F935F936F937F938F9301
:1000C0009F93AF93BF93EF93FF93CF93DF93CDB7FE
:1000D000DEB76C97DEBFCDBF85E390E021E0FC0189
:1000E000208380E090E0AAEFB3E48F87988BA98B00
:1000F000BA8B20E030E04AEF54E46F857889898933
:100100009A890E943D03DC01CB018B8B9C8BAD8BCC
:10011000BE8B20E030E040E85FE36B897C898D890D
:100120009E890E94B70281152CF481E090E0988F9F
:100130008F8B40C020E03FEF4FE757E46B897C890D
:100140008D899E890E943803813054F120E030E08F
:1001500040E251E46F85788989899A890E943D033C
:10016000DC01CB01BC01CD010E94BC02DC01CB0152
:10017000988F8F8B10C088EC90E09A8F898F898D33
:100180009A8D0197F1F79A8F898F00008F89988D4A
:100190000197988F8F8B8F89988D009761F715C085
:1001A0006B897C898D899E890E94BC02DC01CB0110
:1001B000988F8F8B8F89988D9C8F8B8F8B8D9C8D3B
:1001C0000197F1F79C8F8B8F000085E390E0FC0195
:1001D000108280E090E0AAEFB3E489839A83AB8336
:1001E000BC8320E030E04AEF54E469817A818B815E
:1001F0009C810E943D03DC01CB018D839E83AF83F4
:10020000B88720E030E040E85FE36D817E818F8138
:1002100098850E94B70281152CF481E090E09A87BE
:10022000898740C020E03FEF4FE757E46D817E8132
:100230008F8198850E943803813054F120E030E0AE
:1002400040E251E469817A818B819C810E943D0367
:10025000DC01CB01BC01CD010E94BC02DC01CB0161
:100260009A87898710C088EC90E09C878B878B8564
:100270009C850197F1F79C878B87000089859A857B
:1002800001979A87898789859A85009761F715C0B4
:100290006D817E818F8198850E94BC02DC01CB013B
:1002A0009A87898789859A859E878D878D859E8582
:1002B0000197F1F79E878D87000000006C960FB6BE
:1002C000F894DEBF0FBECDBFDF91CF91FF91EF91CC
:1002D000BF91AF919F918F917F916F915F914F915E
:1002E0003F912F910F900BBE0F900FBE0F901F905C
:1002F0001895CF93DF93CDB7DEB76E970FB6F8940E
:10030000DEBF0FBECDBF84E390E02FEFFC01208362
:1003100085E390E0FC0110828AE390E02FEFFC017E
:1003200020838BE390E0FC01108287E590E0FC01E4
:10033000208187E590E02061FC0120838EE490E03D
:1003400028E0FC0120838BE490E02AE7FC01208375
:100350008AE490E022E1FC0120838EE490E0FC013D
:1003600020818EE490E02460FC01208378941A823E
:100370001982F6C08BE390E02FEFFC01208380E030
:1003800090E0AAEFB3E4898B9A8BAB8BBC8B20E017
:1003900030E04AEF54E469897A898B899C890E940C
:1003A0003D03DC01CB018D8B9E8BAF8BB88F20E0A2
:1003B00030E040E85FE36D897E898F89988D0E94E7
:1003C000B70281152CF481E090E09A8F898F40C0AC
:1003D00020E03FEF4FE757E46D897E898F89988D44
:1003E0000E943803813054F120E030E040E251E4D3
:1003F00069897A898B899C890E943D03DC01CB0144
:10040000BC01CD010E94BC02DC01CB019A8F898F17
:1004100010C088EC90E09C8F8B8F8B8D9C8D01970A
:10042000F1F79C8F8B8F0000898D9A8D01979A8FA1
:10043000898F898D9A8D009761F715C06D897E89A6
:100440008F89988D0E94BC02DC01CB019A8F898F25
:10045000898D9A8D9E8F8D8F8D8D9E8D0197F1F751
:100460009E8F8D8F00008BE390E0FC01108280E076
:1004700090E0AAEFB3E48B839C83AD83BE8320E03E
:1004800030E04AEF54E46B817C818D819E810E9433
:100490003D03DC01CB018F839887A987BA8720E0D1
:1004A00030E040E85FE36F81788589859A850E9416
:1004B000B70281152CF481E090E09C878B8740C0C7
:1004C00020E03FEF4FE757E46F81788589859A8573
:1004D0000E943803813054F120E030E040E251E4E2
:1004E0006B817C818D819E810E943D03DC01CB016B
:1004F000BC01CD010E94BC02DC01CB019C878B8733
:1005000010C088EC90E09E878D878D859E85019731
:10051000F1F79E878D8700008B859C8501979C87CE
:100520008B878B859C85009761F715C06F817885D7
:1005300089859A850E94BC02DC01CB019C878B8750
:100540008B859C85988B8F878F8598890197F1F78C
:10055000988B8F87000089819A8101969A8389837D
:1005600089819A81883091050CF404CF00CF0E94D4
:10057000EB0208F481E008950E94170388F09F576A
:1005800098F0B92F9927B751B0F0E1F0660F771FB7
:10059000881F991F1AF0BA95C9F714C0B13091F0AD
:1005A0000E943103B1E008950C943103672F782F36
:1005B0008827B85F39F0B93FCCF386957795679572
:1005C000B395D9F73EF490958095709561957F4FDE
:1005D0008F4F9F4F0895990F0008550FAA0BE0E821
:1005E000FEEF16161706E807F907C0F012161306F5
:1005F000E407F50798F0621B730B840B950B39F435
:100600000A2661F0232B242B252B21F408950A269A
:1006100009F4A140A6958FEF811D811D089557FD16
:100620009058440F551F59F05F3F71F04795880F60
:1006300097FB991F61F09F3F79F0879508951216F7
:1006400013061406551FF2CF4695F1DF08C01616A3
:1006500017061806991FF1CF869571056105089454
:100660000895E894BB2766277727CB0197F908956B
:100670000E94EB0208F48FEF08950E9450030C943F
:10068000C1030E94B30338F00E94BA0320F09523FF
:1006900011F00C94AA030C94B00311240C943203AF
:1006A0000E940F0370F3959FC1F3950F50E0551F03
:1006B000629FF001729FBB27F00DB11D639FAA27B7
:1006C000F00DB11DAA1F649F6627B00DA11D661F06
:1006D000829F2227B00DA11D621F739FB00DA11D27
:1006E000621F839FA00D611D221F749F3327A00DE1
:1006F000611D231F849F600D211D822F762F6A2F7D
:1007000011249F5750409AF0F1F088234AF0EE0FE1
:10071000FF1FBB1F661F771F881F91505040A9F70E
:100720009E3F510580F00C94AA030C9432035F3F66
:10073000E4F3983ED4F3869577956795B795F7954A
:10074000E7959F5FC1F7FE2B880F911D96958795C2
:1007500097F9089597F99F6780E870E060E0089541
:100760009FEF80EC089500240A94161617061806C9
:100770000906089500240A941216130614060506A5
:100780000895092E0394000C11F4882352F0BB0F36
:1007900040F4BF2B11F460FF04C06F5F7F4F8F4F99
:0807A0009F4F0895F894FFCF6C
:00000001FF
