:100000000C942A000C9434000C9434000C943400AA
:100010000C9434000C9434000C9434000C94340090
:100020000C9434000C9434000C9434000C94340080
:100030000C9434000C9434000C9434000C94340070
:100040000C9434000C9434000C9434000C94340060
:100050000C94340011241FBECFE5D4E0DEBFCDBF29
:100060000E9436000C944B000C9400008EB5856005
:100070008EBD1DBC1CBC8FEF81BB12BA98EF2CB596
:100080003DB5232B09F492BB2CB53DB52115304865
:0A009000B1F782BBF4CFF894FFCF64
:00000001FF
