:100000000C942A000C9434000C9434000C943400AA
:100010000C9434000C9434000C9434000C94340090
:100020000C9434000C9434000C9434000C94340080
:100030000C9434000C9434000C9434000C94340070
:100040000C9434000C9434000C9434000C94340060
:100050000C94340011241FBECFE5D4E0DEBFCDBF29
:100060000E9436000C9450000C9400008FEF81BB6E
:1000700085E083BF12BE90E080E02FEF3AEA42B7FE
:100080004F3F11F4019612BE8A30910511F432BB34
:10009000F6CF8431910599F722BB90E080E0EFCF55
:0400A000F894FFCF02
:00000001FF
