:100000000C9446000C9450000C9450000C9450003A
:100010000C9450000C9450000C9450000C94500020
:100020000C9450000C9450000C9450000C94500010
:100030000C9450000C9450000C9450000C94500000
:100040000C9450000C9450000C9450000C945000F0
:100050000C9450000C9450000C9450000C945000E0
:100060000C9450000C9450000C9450000C945000D0
:100070000C9450000C9450000C9450000C945000C0
:100080000C9450000C9450000C94500011241FBE8E
:10009000CFEFD0E1DEBFCDBF0E9452000C94F90239
:1000A0000C940000CF93DF93CDB7DEB7C554D109D0
:1000B0000FB6F894DEBF0FBECDBF83E590E0DC0144
:1000C0002C9183E590E02560FC01208383E590E09E
:1000D000DC012C9183E590E02D7FFC01208384E3FB
:1000E00090E02FEFDC012C9385E390E02FEFFC01F3
:1000F000208381E390E0DC011C9282E390E02FEF0B
:10010000FC01208380E390E02FEFDC012C9388E258
:1001100090E020E8FC01208380E390E0DC019C91EA
:1001200081E09F3F09F080E0882309F4A0C080E8C7
:10013000898398C085E390E029812095FC01208384
:1001400089818695898380E090E0A6E9B3E48A837B
:100150009B83AC83BD8320E030E04AE753E46A81AF
:100160007B818C819D810E9464026EA37FA388A7FE
:1001700099A78EA19FA1A8A5B9A58E839F83A887C3
:10018000B98720E030E040E85FE36E817F818885B9
:1001900099850E94DE0188232CF481E090E09B8702
:1001A0008A8755C020E03FEF4FE757E46E817F819B
:1001B000888599850E945F028823D9F1D4F120E0D7
:1001C00030E040E251E46A817B818C819D810E9414
:1001D00064026AA77BA78CA79DA78AA59BA5ACA54F
:1001E000BDA58E8F9F8FA8A3B9A36E8D7F8D88A18B
:1001F00099A10E94E3016EA77FA788AB99ABAEA53A
:10020000BFA5BB87AA8710C089E190E09D878C8736
:100210008C859D850197F1F79D878C8700008A85E5
:100220009B8501979B878A878A859B85009761F7C5
:1002300019C06E817F81888599850E94E3016AAB30
:100240007BAB8CAB9DABEAA9FBA9FB87EA878A85D0
:100250009B859F878E878E859F850197F1F79F8766
:100260008E8700008981882309F064CF55CF81E013
:1002700089839FC085E390E029812095DC012C9340
:100280008981880F898380E090E0A6E9B3E4888BB8
:10029000998BAA8BBB8B20E030E04AE753E4688956
:1002A00079898A899B890E9464026EAB7FAB88AF93
:1002B00099AF8EA99FA9A8ADB9AD8C8B9D8BAE8B44
:1002C000BF8B20E030E040E85FE36C897D898E8958
:1002D0009F890E94DE0188232CF481E090E0998FB1
:1002E000888F5CC020E03FEF4FE757E46C897D8941
:1002F0008E899F890E945F02882309F00CF43CC01C
:1003000020E030E040E251E4688979898A899B895C
:100310000E9464026AAF7BAF8CAF9DAF8AAD9BAD8C
:10032000ACADBDAD8AA39BA3ACA3BDA36AA17BA1C9
:100330008CA19DA10E94E30122966CAF7DAF8EAF90
:100340009FAF2297AEADBFADB98FA88F10C089E126
:1003500090E09B8F8A8F8A8D9B8D0197F1F79B8F01
:100360008A8F0000888D998D0197998F888F888D4D
:10037000998D009761F71DC06C897D898E899F8951
:100380000E94E30126966CAF7DAF8EAF9FAF26979C
:100390002496EEADFFAD2497F98FE88F888D998D67
:1003A0009D8F8C8F8C8D9D8D0197F1F79D8F8C8FFC
:1003B00000008981882309F05DCFAECE0E94120231
:1003C00008F481E008950E943E0288F09F5798F05B
:1003D000B92F9927B751B0F0E1F0660F771F881F4A
:1003E000991F1AF0BA95C9F714C0B13091F00E9464
:1003F0005802B1E008950C945802672F782F88278F
:10040000B85F39F0B93FCCF3869577956795B3958A
:10041000D9F73EF490958095709561957F4F8F4FF9
:100420009F4F0895990F0008550FAA0BE0E8FEEFC3
:1004300016161706E807F907C0F012161306E407A8
:10044000F50798F0621B730B840B950B39F40A26A1
:1004500061F0232B242B252B21F408950A2609F47F
:10046000A140A6958FEF811D811D089557FD9058DD
:10047000440F551F59F05F3F71F04795880F97FB68
:10048000991F61F09F3F79F0879508951216130622
:100490001406551FF2CF4695F1DF08C01616170651
:1004A0001806991FF1CF8695710561050894089586
:1004B000E894BB2766277727CB0197F908950E9418
:1004C000120208F48FEF08950E9477020C94E8025C
:1004D0000E94DA0238F00E94E10220F0952311F028
:1004E0000C94D1020C94D70211240C9459020E944E
:1004F000360270F3959FC1F3950F50E0551F629F30
:10050000F001729FBB27F00DB11D639FAA27F00D6C
:10051000B11DAA1F649F6627B00DA11D661F829F93
:100520002227B00DA11D621F739FB00DA11D621F78
:10053000839FA00D611D221F749F3327A00D611D95
:10054000231F849F600D211D822F762F6A2F112477
:100550009F5750409AF0F1F088234AF0EE0FFF1FAA
:10056000BB1F661F771F881F91505040A9F79E3F01
:10057000510580F00C94D1020C9459025F3FE4F3D2
:10058000983ED4F3869577956795B795F795E79557
:100590009F5FC1F7FE2B880F911D9695879597F960
:1005A000089597F99F6780E870E060E008959FEFF5
:1005B00080EC089500240A941616170618060906FA
:1005C000089500240A9412161306140605060895C9
:1005D000092E0394000C11F4882352F0BB0F40F451
:1005E000BF2B11F460FF04C06F5F7F4F8F4F9F4F91
:0605F0000895F894FFCF0E
:00000001FF
