:100000000C942A000C9436000C9434000C943400A8
:100010000C9434000C9434000C9434000C94340090
:100020000C9434000C9434000C9434000C94340080
:100030000C9434000C9434000C9434000C94340070
:100040000C9434000C9434000C9434000C94340060
:100050000C94340011241FBECFE5D4E0DEBFCDBF29
:100060000E9466050C94360E0C9400001F920F92AD
:100070000FB60F9211240F931F932F933F934F931B
:100080005F936F937F938F939F93AF93BF93EF9300
:10009000FF93CF93DF93CDB7DEB7CC5CD109DEBF42
:1000A000CDBF82E390E0DC012C9182E390E02160FF
:1000B000FC0120839E01295B3F4F80E090E0A6E198
:1000C000B3E4F90180839183A283B3838E01055B3E
:1000D0001F4FCE01895B9F4F20E030E04AE753E499
:1000E000DC016D917D918D919C910E94A10DE19615
:1000F0006CAF7DAF8EAF9FAFE197E1962CAD3DAD7C
:100100004EAD5FADE197D8012D933D934D935C9338
:100110001397CE01855B9F4F20E030E040E85FE31E
:10012000FC0160817181828193810E941B0D882373
:1001300054F4CE01815B9F4F21E030E0DC01119649
:100140003C932E9395C0CE01855B9F4F20E03FEFFF
:100150004FE757E4FC0160817181828193810E94A5
:100160009C0D882309F00CF469C0CE01895B9F4F78
:1001700020E030E040E251E4DC016D917D918D9111
:100180009C910E94A10DE5966CAF7DAF8EAF9FAFA5
:10019000E597E5962CAD3DAD4EAD5FADE597AD96DF
:1001A0002CAF3DAF4EAF5FAFAD978E01015B1F4FE0
:1001B000AD966CAD7DAD8EAD9FADAD970E94200D1F
:1001C000E9966CAF7DAF8EAF9FAFE997E796EEAD46
:1001D000FFADE797D8011196FC93EE9326C0CE01B0
:1001E0008F5A9F4F29E130E0DC012D933C93CE01E3
:1001F0008F5A9F4FFC01808191810197F1F79E01F9
:100200002F5A3F4FD9018D939C930000CE01815B03
:100210009F4F9E01215B3F4FF90120813181215089
:100220003109DC0111963C932E93CE01815B9F4FE7
:10023000FC0180819181009791F635C08E01015BB0
:100240001F4FCE01855B9F4FDC016D917D918D919C
:100250009C910E94200DED966CAF7DAF8EAF9FAF4D
:10026000ED97EB962EAD3FADEB97F80131832083F0
:10027000CE018D5A9F4F9E01215B3F4FD9012D9199
:100280003C91FC0131832083CE018D5A9F4FDC01CC
:100290008D919C910197F1F79E012D5A3F4FF901E5
:1002A00091838083000082E390E0DC012C9182E363
:1002B00090E02E7FFC01208380E090E0A6E1B3E493
:1002C00089AF9AAFABAFBCAF20E030E04AE753E470
:1002D00069AD7AAD8BAD9CAD0E94A10DC358DF4FC7
:1002E000688379838A839B83CD57D040CE01CD9696
:1002F000C358DF4F288139814A815B81CD57D04077
:10030000DC012D933D934D935C93139720E030E0F7
:1003100040E85FE3CE01CD96FC016081718182816E
:1003200093810E941B0D882354F4CE018F5B9F4F55
:1003300021E030E0DC0111963C932E939BC020E03D
:100340003FEF4FE757E4CE01CD96FC01608171810C
:10035000828193810E949C0D882309F00CF46DC06A
:1003600020E030E040E251E469AD7AAD8BAD9CAD68
:100370000E94A10DCF57DF4F688379838A839B83C7
:10038000C158D040CF57DF4F288139814A815B81E6
:10039000C158D040A9962CAF3DAF4EAF5FAFA997E3
:1003A0008E010F5B1F4FA9966CAD7DAD8EAD9FADDD
:1003B000A9970E94200DCB57DF4F688379838A83EA
:1003C0009B83C558D040CB57DF4FE881F981C55892
:1003D000D040D8011196FC93EE9326C0CE018D5BE0
:1003E0009F4F29E130E0DC012D933C93CE018D5BE2
:1003F0009F4FFC01808191810197F1F79E012D5B58
:100400003F4FD9018D939C930000CE018F5B9F4F8E
:100410009E012F5B3F4FF90120813181215031092D
:10042000DC0111963C932E93CE018F5B9F4FFC0114
:1004300080819181009791F638C08E010F5B1F4F2C
:10044000CE01CD96DC016D917D918D919C910E94A4
:10045000200DC757DF4F688379838A839B83C958F0
:10046000D040C757DF4F28813981C958D040F801A3
:1004700031832083CE018B5B9F4F9E012F5B3F4FCB
:10048000D9012D913C91FC0131832083CE018B5BFE
:100490009F4FDC018D919C910197F1F79E012B5BA1
:1004A0003F4FF90191838083000082E390E0DC01FB
:1004B0002C9182E390E02160FC01208380E090E0B9
:1004C000A6E1B3E48BA79CA7ADA7BEA720E030E0D0
:1004D0004AE753E46BA57CA58DA59EA50E94A10DBE
:1004E000C357DF4F688379838A839B83CD58D0407D
:1004F000C357DF4F288139814A815B81CD58D04075
:100500002FA738AB49AB5AAB20E030E040E85FE3BF
:100510006FA578A989A99AA90E941B0D88232CF49C
:1005200081E090E09CAB8BAB72C020E03FEF4FE7E7
:1005300057E46FA578A989A99AA90E949C0D8823E0
:1005400009F00CF44EC020E030E040E251E46BA52D
:100550007CA58DA59EA50E94A10DCF56DF4F688377
:1005600079838A839B83C159D040CF56DF4F8881DE
:100570009981AA81BB81C159D040A5968CAF9DAF0E
:10058000AEAFBFAFA597A5966CAD7DAD8EAD9FAD5F
:10059000A5970E94200DCB56DF4F688379838A830D
:1005A0009B83C559D040CB56DF4FA881B981C5592F
:1005B000D040BCABABAB10C089E190E09EAB8DAB43
:1005C0008DA99EA90197F1F79EAB8DAB00008BA979
:1005D0009CA901979CAB8BAB8BA99CA9009761F759
:1005E00021C06FA578A989A99AA90E94200DC75694
:1005F000DF4F688379838A839B83C959D040C7566C
:10060000DF4FE881F981C959D040FCABEBAB8BA936
:100610009CA998AF8FAB8FA998AD0197F1F798AFD0
:100620008FAB000082E390E0DC012C9182E390E04C
:100630002E7FFC01208380E090E0A6E1B3E48D8F63
:100640009E8FAF8FB8A320E030E04AE753E46D8D72
:100650007E8D8F8D98A10E94A10DC356DF4F6883B8
:1006600079838A839B83CD59D040C356DF4F28813D
:1006700039814A815B81CD59D04029A33AA34BA34C
:100680005CA320E030E040E85FE369A17AA18BA1A0
:100690009CA10E941B0D88232CF481E090E09EA376
:1006A0008DA372C020E03FEF4FE757E469A17AA124
:1006B0008BA19CA10E949C0D882309F00CF44EC0D4
:1006C00020E030E040E251E46D8D7E8D8F8D98A169
:1006D0000E94A10DCF55DF4F688379838A839B8366
:1006E000C15AD040CF55DF4F88819981AA81BB8103
:1006F000C15AD040A1968CAF9DAFAEAFBFAFA1970E
:10070000A1966CAD7DAD8EAD9FADA1970E94200DE1
:10071000CB55DF4F688379838A839B83C55AD0404A
:10072000CB55DF4FA881B981C55AD040BEA3ADA338
:1007300010C089E190E098A78FA38FA198A5019799
:10074000F1F798A78FA300008DA19EA101979EA30A
:100750008DA38DA19EA1009761F721C069A17AA107
:100760008BA19CA10E94200DC755DF4F6883798320
:100770008A839B83C95AD040C755DF4FE881F981EE
:10078000C95AD040FEA3EDA38DA19EA19AA789A727
:1007900089A59AA50197F1F79AA789A7000082E396
:1007A00090E0DC012C9182E390E02160FC01208349
:1007B00080E090E0A6E1B3E48F87988BA98BBA8B99
:1007C00020E030E04AE753E46F85788989899A8987
:1007D0000E94A10DC355DF4F688379838A839B8371
:1007E000CD5AD040C355DF4F288139814A815B8182
:1007F000CD5AD0402B8B3C8B4D8B5E8B20E030E074
:1008000040E85FE36B897C898D899E890E941B0D7E
:1008100088232CF481E090E0988F8F8B72C020E0C9
:100820003FEF4FE757E46B897C898D899E890E9451
:100830009C0D882309F00CF44EC020E030E040E22B
:1008400051E46F85788989899A890E94A10DCF54D6
:10085000DF4F688379838A839B83C15BD040CF5409
:10086000DF4F88819981AA81BB81C15BD0406D96A1
:100870008CAF9DAFAEAFBFAF6D976D966CAD7DADDC
:100880008EAD9FAD6D970E94200DCB54DF4F6883D6
:1008900079838A839B83C55BD040CB54DF4FA8818B
:1008A000B981C55BD040B88FAF8B10C089E190E0B3
:1008B0009A8F898F898D9A8D0197F1F79A8F898FF9
:1008C00000008F89988D0197988F8F8B8F89988DD5
:1008D000009761F721C06B897C898D899E890E9470
:1008E000200DC754DF4F688379838A839B83C95B5C
:1008F000D040C754DF4FE881F981C95BD040F88F01
:10090000EF8B8F89988D9C8F8B8F8B8D9C8D019712
:10091000F1F79C8F8B8F000082E390E0DC012C913B
:1009200082E390E02E7FFC01208380E090E0A6E14E
:10093000B3E489839A83AB83BC8320E030E04AE749
:1009400053E469817A818B819C810E94A10DC354FB
:10095000DF4F688379838A839B83CD5BD040C35408
:10096000DF4F288139814A815B81CD5BD0402D8367
:100970003E834F83588720E030E040E85FE36D819D
:100980007E818F8198850E941B0D88232CF481E045
:1009900090E09A87898772C020E03FEF4FE757E4E5
:1009A0006D817E818F8198850E949C0D882309F03E
:1009B0000CF44EC020E030E040E251E469817A81DD
:1009C0008B819C810E94A10DCF53DF4F6883798377
:1009D0008A839B83C15CD040CF53DF4F888199814C
:1009E000AA81BB81C15CD04069968CAF9DAFAEAF90
:1009F000BFAF699769966CAD7DAD8EAD9FAD6997C0
:100A00000E94200DCB53DF4F688379838A839B83B9
:100A1000C55CD040CB53DF4FA881B981C55CD040C5
:100A2000BA87A98710C089E190E09C878B878B8566
:100A30009C850197F1F79C878B87000089859A85B3
:100A400001979A87898789859A85009761F721C0E0
:100A50006D817E818F8198850E94200DC753DF4F65
:100A6000688379838A839B83C95CD040C753DF4FF7
:100A7000E881F981C95CD040FA87E98789859A8540
:100A80009E878D878D859E850197F1F79E878D873F
:100A900000000000C453DF4F0FB6F894DEBF0FBE56
:100AA000CDBFDF91CF91FF91EF91BF91AF919F911A
:100AB0008F917F916F915F914F913F912F911F91F6
:100AC0000F910F900FBE0F901F9018950F931F93CB
:100AD000CF93DF93CDB7DEB7C651D1400FB6F894B0
:100AE000DEBF0FBECDBF9E012D583F4FD9018D9364
:100AF0009C93CE018B589F4FFC01718360838BE5E3
:100B000090E020ECDC012C9385E590E022E0FC01F4
:100B100020838FE590E0DC012C918FE590E0206848
:100B2000FC01208384E390E02FEFDC012C9385E32C
:100B300090E0FC01108281E390E0DC012C9181E3E4
:100B400090E02160FC01208382E390E0DC012C91A5
:100B500082E390E02E7FFC01208381E390E0DC01C2
:100B60002C9181E390E02B77FC01208382E390E0DD
:100B7000DC012C9182E390E02468FC01208385E372
:100B800090E0DC011C9280E090E0AAEFB3E48B835C
:100B90009C83AD83BE8320E030E04AE753E46B8161
:100BA0007C818D819E810E94A10DC956DF4F688393
:100BB00079838A839B83C759D040C956DF4F888188
:100BC0009981AA81BB81C759D0408F839887A98713
:100BD000BA8720E030E040E85FE36F81788589855F
:100BE0009A850E941B0D88232CF481E090E09C875D
:100BF0008B8772C020E03FEF4FE757E46F81788525
:100C000089859A850E949C0D882309F00CF44EC0BA
:100C100020E030E040E251E46B817C818D819E8157
:100C20000E94A10DC556DF4F688379838A839B8319
:100C3000CB59D040C556DF4F88819981AA81BB81AD
:100C4000CB59D040EB968CAF9DAFAEAFBFAFEB971B
:100C5000EB966CAD7DAD8EAD9FADEB970E94200DF8
:100C6000C156DF4F688379838A839B83CF59D040F5
:100C7000C156DF4FA881B981CF59D040BC87AB871F
:100C800010C089E190E09E878D878D859E850197B4
:100C9000F1F79E878D8700008B859C8501979C8747
:100CA0008B878B859C85009761F721C06F81788544
:100CB00089859A850E94200DCD55DF4F6883798301
:100CC0008A839B83C35AD040CD55DF4FE881F98199
:100CD000C35AD040FC87EB878B859C85988B8F8788
:100CE0008F8598890197F1F7988B8F8700001A827A
:100CF0001982CBC085E390E0DC018C91282F81E044
:100D000090E0098002C0880F991F0A94E2F7282B0F
:100D100085E390E0FC01208380E090E0AAEFB3E45B
:100D2000898B9A8BAB8BBC8B20E030E04AE753E495
:100D300069897A898B899C890E94A10DC955DF4FE9
:100D4000688379838A839B83C75AD040C955DF4F14
:100D500088819981AA81BB81C75AD0408D8B9E8B97
:100D6000AF8BB88F20E030E040E85FE36D897E898B
:100D70008F89988D0E941B0D88232CF481E090E0D0
:100D80009A8F898F72C020E03FEF4FE757E46D895B
:100D90007E898F89988D0E949C0D882309F00CF420
:100DA0004EC020E030E040E251E469897A898B89C5
:100DB0009C890E94A10DC555DF4F688379838A8382
:100DC0009B83CB5AD040C555DF4F88819981AA813A
:100DD000BB81CB5AD040EF968CAF9DAFAEAFBFAFCB
:100DE000EF97EF966CAD7DAD8EAD9FADEF970E9406
:100DF000200DC155DF4F688379838A839B83CF5A47
:100E0000D040C155DF4FA881B981CF5AD040BA8FA9
:100E1000A98F10C089E190E09C8F8B8F8B8D9C8D6A
:100E20000197F1F79C8F8B8F0000898D9A8D019728
:100E30009A8F898F898D9A8D009761F721C06D896E
:100E40007E898F89988D0E94200DCD54DF4F688355
:100E500079838A839B83C35BD040CD54DF4FE88185
:100E6000F981C35BD040FA8FE98F898D9A8D9E8F6F
:100E70008D8F8D8D9E8D0197F1F79E8F8D8F000048
:100E800089819A8101969A83898389819A818730A1
:100E9000910509F00CF42ECF80E390E0DC018C91F9
:100EA0008095881F8827881F882309F468CE82E3ED
:100EB00090E0FC01208182E390E02160DC012C9332
:100EC0009E012B593F4F80E090E0A6E1B3E4F90189
:100ED00080839183A283B3838E0107591F4FCE0174
:100EE0008B599F4F20E030E04AE753E4DC016D91DD
:100EF0007D918D919C910E94A10DC954DF4F688313
:100F000079838A839B83C75BD040C954DF4F888134
:100F10009981AA81BB81C75BD040F801808391830E
:100F2000A283B383CE0187599F4F20E030E040E891
:100F30005FE3DC016D917D918D919C910E941B0D71
:100F400088234CF4CE0183599F4F21E030E0FC010F
:100F500031832083A5C0CE0187599F4F20E03FEF0A
:100F60004FE757E4DC016D917D918D919C910E943A
:100F70009C0D882309F00CF475C0CE018B599F4F4E
:100F800020E030E040E251E4FC0160817181828127
:100F900093810E94A10DC554DF4F688379838A83B2
:100FA0009B83CB5BD040C554DF4F88819981AA8158
:100FB000BB81CB5BD040CD56DF4F88839983AA831A
:100FC000BB83C359D0408E0103591F4FCD56DF4F0D
:100FD000688179818A819B81C359D0400E94200D0C
:100FE000C154DF4F688379838A839B83CF5BD04072
:100FF000C154DF4FE881F981CF5BD040D801119611
:10100000FC93EE9326C0CE0181599F4F29E130E039
:10101000DC012D933C93CE0181599F4FFC018081CF
:1010200091810197F1F79E0121593F4FD9018D938D
:101030009C930000CE0183599F4F9E0123593F4F3F
:10104000F9012081318121503109DC0111963C9355
:101050002E93CE0183599F4FFC018081918100978F
:1010600091F639C08E0103591F4FCE0187599F4F0A
:10107000DC016D917D918D919C910E94200DCD534D
:10108000DF4F688379838A839B83C35CD040CD53D1
:10109000DF4F88819981C35CD040F80191838083C0
:1010A000CE018F589F4F9E0123593F4FD9012D915B
:1010B0003C91FC0131832083CE018F589F4FDC018E
:1010C0008D919C910197F1F79E012F583F4FF901A7
:1010D00091838083000082E390E0DC012C9182E325
:1010E00090E02E7FFC0120839E01295A3F4F80E033
:1010F00090E0A6E1B3E4F90180839183A283B383F6
:101100008E01055A1F4FCE01895A9F4F20E030E0D3
:101110004AE753E4DC016D917D918D919C910E9491
:10112000A10DC953DF4F688379838A839B83C75C92
:10113000D040C953DF4F88819981AA81BB81C75CA8
:10114000D040F80180839183A283B383CE01855A76
:101150009F4F20E030E040E85FE3DC016D917D913E
:101160008D919C910E941B0D88234CF4CE01815AD5
:101170009F4F21E030E0FC0131832083A5C0CE01E8
:10118000855A9F4F20E03FEF4FE757E4DC016D9118
:101190007D918D919C910E949C0D882309F00CF407
:1011A00075C0CE01895A9F4F20E030E040E251E403
:1011B000FC0160817181828193810E94A10DC553E0
:1011C000DF4F688379838A839B83CB5CD040C55390
:1011D000DF4F88819981AA81BB81CB5CD040C15708
:1011E000DF4F88839983AA83BB83CF58D0408E0179
:1011F000015A1F4FC157DF4F688179818A819B81D6
:10120000CF58D0400E94200DC153DF4F68837983AF
:101210008A839B83CF5CD040C153DF4FE881F98143
:10122000CF5CD040D8011196FC93EE9326C0CE013E
:101230008F599F4F29E130E0DC012D933C93CE0183
:101240008F599F4FFC01808191810197F1F79E0199
:101250002F593F4FD9018D939C930000CE01815AA5
:101260009F4F9E01215A3F4FF9012081318121502A
:101270003109DC0111963C932E93CE01815A9F4F88
:10128000FC0180819181009791F639C08E01015A4D
:101290001F4FCE01855A9F4FDC016D917D918D913D
:1012A0009C910E94200DCD52DF4F688379838A8301
:1012B0009B83C35DD040CD52DF4F88819981C35D50
:1012C000D040F80191838083CE018D599F4F9E01BC
:1012D000215A3F4FD9012D913C91FC01318320834C
:1012E000CE018D599F4FDC018D919C910197F1F7B3
:1012F0009E012D593F4FF90191838083000082E3C5
:1013000090E0DC012C9182E390E02160FC012083DD
:101310009E01275B3F4F80E090E0A6E1B3E4F90136
:1013200080839183A283B3838E01035B1F4FCE0121
:10133000875B9F4F20E030E04AE753E4DC016D918A
:101340007D918D919C910E94A10DC952DF4F6883C0
:1013500079838A839B83C75DD040C952DF4F8881E0
:101360009981AA81BB81C75DD040F80180839183B8
:10137000A283B383CE01835B9F4F20E030E040E83F
:101380005FE3DC016D917D918D919C910E941B0D1D
:1013900088234CF4CE018F5A9F4F21E030E0FC01AE
:1013A00031832083A5C0CE01835B9F4F20E03FEFB8
:1013B0004FE757E4DC016D917D918D919C910E94E6
:1013C0009C0D882309F00CF475C0CE01875B9F4FFC
:1013D00020E030E040E251E4FC01608171818281D3
:1013E00093810E94A10DC552DF4F688379838A8360
:1013F0009B83CB5DD040C552DF4F88819981AA8104
:10140000BB81CB5DD040C557DF4F88839983AA83CA
:10141000BB83CB58D0408E010F5A1F4FC557DF4FAB
:10142000688179818A819B81CB58D0400E94200DB0
:10143000C152DF4F688379838A839B83CF5DD0401D
:10144000C152DF4FE881F981CF5DD040D8011196BC
:10145000FC93EE9326C0CE018D5A9F4F29E130E0D8
:10146000DC012D933C93CE018D5A9F4FFC0180816E
:1014700091810197F1F79E012D5A3F4FD9018D932C
:101480009C930000CE018F5A9F4F9E012F5A3F4FD1
:10149000F9012081318121503109DC0111963C9301
:1014A0002E93CE018F5A9F4FFC018081918100972E
:1014B00091F639C08E010F5A1F4FCE01835B9F4FAB
:1014C000DC016D917D918D919C910E94200DCD51FB
:1014D000DF4F688379838A839B83C35ED040CD517D
:1014E000DF4F88819981C35ED040F801918380836A
:1014F000CE018B5A9F4F9E012F5A3F4FD9012D91FC
:101500003C91FC0131832083CE018B5A9F4FDC013B
:101510008D919C910197F1F79E012B5A3F4FF90154
:1015200091838083000082E390E0DC012C9182E3D0
:1015300090E02E7FFC01208380E090E0A6E1B3E400
:101540008BAF9CAFADAFBEAF8E01015C1F4F20E0F3
:1015500030E04AE753E46BAD7CAD8DAD9EAD0E94AB
:10156000A10DC951DF4F688379838A839B83C75E4E
:10157000D040C951DF4F88819981AA81BB81C75E64
:10158000D040F80180839183A283B383CE01CF96AC
:1015900020E030E040E85FE3DC016D917D918D91CA
:1015A0009C910E941B0D88234CF4CE018D5B9F4FB4
:1015B00021E030E0FC01318320839FC0CE01CF9633
:1015C00020E03FEF4FE757E4DC016D917D918D9175
:1015D0009C910E949C0D882309F00CF471C020E0BE
:1015E00030E040E251E46BAD7CAD8DAD9EAD0E942C
:1015F000A10DC551DF4F688379838A839B83CB5EBE
:10160000D040C551DF4F88819981AA81BB81CB5ED3
:10161000D040C957DF4F88839983AA83BB83C758BB
:10162000D0408E010D5B1F4FC957DF4F6881798114
:101630008A819B81C758D0400E94200DC151DF4F45
:10164000688379838A839B83CF5ED040C151DF4F0B
:10165000E881F981CF5ED040D8011196FC93EE93DA
:1016600026C0CE018B5B9F4F29E130E0DC012D933A
:101670003C93CE018B5B9F4FFC0180819181019750
:10168000F1F79E012B5B3F4FD9018D939C93000096
:10169000CE018D5B9F4F9E012D5B3F4FF901208155
:1016A000318121503109DC0111963C932E93CE01FA
:1016B0008D5B9F4FFC0180819181009791F638C02E
:1016C0008E010D5B1F4FCE01CF96DC016D917D9198
:1016D0008D919C910E94200DCD50DF4F68837983BE
:1016E0008A839B83C35FD040CD50DF4F888199812F
:1016F000C35FD040F80191838083CE01895B9F4F07
:101700009E012D5B3F4FD9012D913C91FC0131830E
:101710002083CE01895B9F4FDC018D919C910197C5
:10172000F1F79E01295B3F4FF9019183808300000F
:1017300082E390E0DC012C9182E390E02160FC01E7
:10174000208380E090E0A6E1B3E48DA79EA7AFA739
:10175000B8AB20E030E04AE753E46DA57EA58FA545
:1017600098A90E94A10DC950DF4F688379838A83AD
:101770009B83C75FD040C950DF4F88819981AA8180
:10178000BB81C75FD04089AB9AABABABBCAB20E0B1
:1017900030E040E85FE369A97AA98BA99CA90E947F
:1017A0001B0D88232CF481E090E09EAB8DAB76C0BE
:1017B00020E03FEF4FE757E469A97AA98BA99CA9DC
:1017C0000E949C0D882309F00CF452C020E030E008
:1017D00040E251E46DA57EA58FA598A90E94A10DB8
:1017E000C550DF4F688379838A839B83CB5FD0406A
:1017F000C550DF4F88819981AA81BB81CB5FD040E2
:10180000CD57DF4F88839983AA83BB83C358D040C9
:10181000CD57DF4F688179818A819B81C358D04041
:101820000E94200DC150DF4F688379838A839B8398
:10183000CF5FD040C150DF4FA881B981CF5FD0408A
:10184000BEABADAB10C089E190E098AF8FAB8FA974
:1018500098AD0197F1F798AF8FAB00008DA99EA9C5
:1018600001979EAB8DAB8DA99EA9009761F721C012
:1018700069A97AA98BA99CA90E94200DCD5FDE4F92
:10188000688379838A839B83C350D140CD5FDE4FC9
:10189000E881F981C350D140FEABEDAB8DA99EA983
:1018A0009AAF89AF89AD9AAD0197F1F79AAF89AF39
:1018B000000082E390E0DC012C9182E390E02E7F37
:1018C000FC01208380E090E0A6E1B3E48F8F98A331
:1018D000A9A3BAA320E030E04AE753E46F8D78A1D2
:1018E00089A19AA10E94A10DC95FDE4F6883798307
:1018F0008A839B83C750D140C95FDE4F888199811D
:10190000AA81BB81C750D1408BA39CA3ADA3BEA32A
:1019100020E030E040E85FE36BA17CA18DA19EA1B7
:101920000E941B0D88232CF481E090E098A78FA3E0
:1019300076C020E03FEF4FE757E46BA17CA18DA17B
:101940009EA10E949C0D882309F00CF452C020E057
:1019500030E040E251E46F8D78A189A19AA10E9404
:10196000A10DC55FDE4F688379838A839B83CB504B
:10197000D140C55FDE4F88819981AA81BB81CB5060
:10198000D140C158DF4F88839983AA83BB83CF5747
:10199000D040C158DF4F688179818A819B81CF57C0
:1019A000D0400E94200DC15FDE4F688379838A8317
:1019B0009B83CF50D140C15FDE4FA881B981CF500A
:1019C000D140B8A7AFA310C089E190E09AA789A73A
:1019D00089A59AA50197F1F79AA789A700008FA179
:1019E00098A5019798A78FA38FA198A5009761F755
:1019F00021C06BA17CA18DA19EA10E94200DCD5E76
:101A0000DE4F688379838A839B83C351D140CD5E47
:101A1000DE4FE881F981C351D140F8A7EFA38FA130
:101A200098A59CA78BA78BA59CA50197F1F79CA7D0
:101A30008BA70000A4C80E944F0D08F481E0089510
:101A40000E947B0D88F09F5798F0B92F9927B751C6
:101A5000B0F0E1F0660F771F881F991F1AF0BA9552
:101A6000C9F714C0B13091F00E94950DB1E008950E
:101A70000C94950D672F782F8827B85F39F0B93F00
:101A8000CCF3869577956795B395D9F73EF4909505
:101A90008095709561957F4F8F4F9F4F0895990F57
:101AA0000008550FAA0BE0E8FEEF16161706E80728
:101AB000F907C0F012161306E407F50798F0621B49
:101AC000730B840B950B39F40A2661F0232B242B1E
:101AD000252B21F408950A2609F4A140A6958FEF3D
:101AE000811D811D089557FD9058440F551F59F0D1
:101AF0005F3F71F04795880F97FB991F61F09F3FFB
:101B000079F087950895121613061406551FF2CF23
:101B10004695F1DF08C0161617061806991FF1CF73
:101B200086957105610508940895E894BB2766279A
:101B30007727CB0197F908950E944F0D08F48FEF96
:101B400008950E94B40D0C94250E0E94170E38F0D3
:101B50000E941E0E20F0952311F00C940E0E0C9492
:101B6000140E11240C94960D0E94730D70F3959F22
:101B7000C1F3950F50E0551F629FF001729FBB2784
:101B8000F00DB11D639FAA27F00DB11DAA1F649F20
:101B90006627B00DA11D661F829F2227B00DA11DD3
:101BA000621F739FB00DA11D621F839FA00D611D59
:101BB000221F749F3327A00D611D231F849F600D7A
:101BC000211D822F762F6A2F11249F5750409AF0A3
:101BD000F1F088234AF0EE0FFF1FBB1F661F771F2F
:101BE000881F91505040A9F79E3F510580F00C94FA
:101BF0000E0E0C94960D5F3FE4F3983ED4F3869559
:101C000077956795B795F795E7959F5FC1F7FE2B99
:101C1000880F911D9695879597F9089597F99F6775
:101C200080E870E060E008959FEF80EC0895002464
:101C30000A941616170618060906089500240A9431
:101C400012161306140605060895092E0394000CB7
:101C500011F4882352F0BB0F40F4BF2B11F460FF46
:101C600004C06F5F7F4F8F4F9F4F0895F894FFCF51
:00000001FF
