:100000000C942A000C9434000C9434000C943400AA
:100010000C9434000C9434000C9434000C94340090
:100020000C9434000C9434000C9434000C94340080
:100030000C9434000C9434000C9434000C94340070
:100040000C9434000C9434000C9434000C94340060
:100050000C94340011241FBECFE5D4E0DEBFCDBF29
:100060000E9436000C945D000C9400008FEF81BB61
:1000700085E083BF12BE80E090E02FEF3AEA42B7FE
:100080004F3FE9F7019612BE8A30910551F0843155
:100090009105A9F722BB82B78F3F59F080E090E02D
:1000A000EECF32BB82B78F3FE1F712BE8BE090E01C
:0E00B000E6CF12BE81E090E0E2CFF894FFCFE1
:00000001FF
