:100000000C942A000C9434000C9434000C943400AA
:100010000C9434000C9434000C9434000C94340090
:100020000C9434000C9434000C9434000C94340080
:100030000C9434000C9434000C9434000C94340070
:100040000C9434000C9434000C9434000C94340060
:100050000C94340011241FBECFE5D4E0DEBFCDBF29
:100060000E9436000C9455000C9400008FEF81BB69
:1000700085E083BF12BE80E090E03AEA22B72F3FCE
:1000800081F4019612BE8A30910521F432BB8AE0D8
:1000900090E0F4CF8431910589F722BB80E090E0B5
:0E00A000EDCF8A30910551F7F1CFF894FFCFE4
:00000001FF
