:100000000C942A000C9434000C9434000C943400AA
:100010000C9434000C9434000C9434000C94340090
:100020000C9436000C9434000C9434000C9434007E
:100030000C9434000C9434000C9434000C94340070
:100040000C9434000C9434000C9434000C94340060
:100050000C94340011241FBECFE5D4E0DEBFCDBF29
:100060000E946F000C94A5000C9400001F920F9248
:100070000FB60F9211242F933F934F938F939F931B
:100080001EBC30E020E025303105DCF482B3816015
:1000900082BB4FE986E891E0415080409040E1F713
:1000A00000C0000082B38E7F82BB4FE986E891E0FA
:1000B000415080409040E1F700C000002F5F3F4F6B
:1000C000E2CF1DBC1CBC83E08EBD9F918F914F91F0
:1000D0003F912F910F900FBE0F901F9018958FEFAB
:1000E0008ABB1BBA81B3816081BB82B38E7F82BB26
:1000F00089B7846089BF83E08EBD1DBC1CBC789429
:1001000090E080E088309105DCF71BBA2FE936E8F3
:1001100041E0215030404040E1F700C000002BB3E7
:1001200041E050E0082E02C0440F551F0A94E2F748
:10013000242B2BBB2FE936E841E0215030404040D2
:0E014000E1F700C000000196DDCFF894FFCF7C
:00000001FF
