:100000000C9446000C9450000C9450000C9450003A
:100010000C9450000C9450000C9450000C94500020
:100020000C9450000C9450000C9450000C94500010
:100030000C9450000C9450000C9450000C94500000
:100040000C9450000C9450000C9450000C945000F0
:100050000C9450000C9450000C9450000C945000E0
:100060000C9450000C9450000C9450000C945000D0
:100070000C9450000C9450000C9450000C945000C0
:100080000C9450000C9450000C94500011241FBE8E
:10009000CFEFD0E1DEBFCDBF0E9483000C948A0079
:1000A0000C940000CF93DF93CDB7DEB783E590E0EB
:1000B000FC01208183E590E02860FC01208383E53A
:1000C00090E0FC01208183E590E02460FC01208326
:1000D00083E590E0FC01208183E590E02061FC0154
:1000E000208387E390E0FC01208187E390E020619A
:1000F000FC01208381E590E022E3FC0120830000E5
:10010000DF91CF910895CF93DF93CDB7DEB70E94F3
:080110005200FFCFF894FFCF6D
:00000001FF
